:020000040800F2
:1000000000000220510B0008A10B00086D3700080A
:10001000A10B0008A10B0008A10B000800000000C4
:10002000000000000000000000000000A10B00081C
:10003000A10B000800000000A10B000875370008A4
:10004000A10B0008A10B0008A10B0008A10B0008E0
:10005000A10B0008A10B0008A10B0008A10B0008D0
:10006000A10B0008A10B0008A10B0008A10B0008C0
:10007000A10B0008A10B0008A10B0008A10B0008B0
:10008000A10B0008A10B0008993B0008A10B000878
:10009000A10B0008A10B0008A10B0008A10B000890
:1000A0005D3C00084D3C0008A10B0008A10B0008B6
:1000B000E93B0008A10B0008A10B0008A10B0008F8
:1000C000A10B0008A10B0008A10B0008A10B000860
:1000D000A10B0008A10B00084D360008A10B000879
:1000E000B9370008A10B0008A10B0008A10B0008FC
:1000F000A10B0008A10B0008A10B0008A10B000830
:10010000A10B0008A10B0008A10B0008A10B00081F
:10011000A10B0008A10B0008A10B0008A10B00080F
:10012000A10B0008A10B0008A10B0008A10B0008FF
:10013000A10B0008A10B0008A10B0008A10B0008EF
:10014000A10B0008A10B0008A10B0008A10B0008DF
:10015000A10B0008A10B0008A10B0008A10B0008CF
:10016000A10B0008A10B0008A10B0008A10B0008BF
:10017000A10B0008A10B0008A10B0008A10B0008AF
:10018000A10B0008A10B0008A10B0008A10B00089F
:10019000A10B000800000000A10B0008A10B000843
:1001A000A10B0008A10B0008A10B0008A10B00087F
:1001B000A10B0008A10B0008A10B0008A10B00086F
:1001C000A10B0008A10B0008A10B0008A10B00085F
:0801D000A10B0008A10B0008BF
:1001D80010B5054C237833B9044B13B10448AFF379
:1001E80000800123237010BD880400200000000057
:1001F8005C8D000808B5034B1BB103490348AFF3F6
:10020800008008BD000000008C0400205C8D000800
:1002180070B54FF0FF0C4CF4E06C1CEA11541DBF94
:100228001CEA135594EA0C0F95EA0C0F00F0DEF85F
:100238002C4481EA030621EA4C5123EA4C5350EA44
:10024800013518BF52EA033541F4801143F4801395
:1002580038D0A0FB02CE4FF00005E1FB02E506F026
:100268000042E0FB03E54FF00006E1FB03569CF07B
:10027800000F18BF4EF0010EA4F1FF04B6F5007F81
:1002880064F5407404D25FEA4E0E6D4146EB0606F3
:1002980042EAC62141EA55514FEAC52040EA5E507C
:1002A8004FEACE2EB4F1FD0C88BFBCF5E06F1ED826
:1002B800BEF1004F08BF5FEA500E50F1000041EB5D
:1002C800045170BD06F0004646EA010140EA02000A
:1002D80081EA0301B4EB5C04C2BFD4EB0C0541EA2C
:1002E800045170BD41F480114FF0000E013C00F341
:1002F800AB8014F1360FDEBF002001F0004170BD65
:10030800C4F10004203C35DA0C341BDC04F114047D
:10031800C4F1200500FA05F320FA04F001FA05F209
:1003280040EA020001F0004221F0004110EBD370D6
:1003380021FA04F642EB06015EEA430E08BF20EA02
:10034800D37070BDC4F10C04C4F1200500FA04F3A5
:1003580020FA05F001FA04F240EA020001F0004137
:1003680010EBD37041F100015EEA430E08BF20EAAA
:10037800D37070BDC4F1200500FA05F24EEA020EF2
:1003880020FA04F301FA05F243EA020321FA04F021
:1003980001F0004121FA04F220EA020000EBD370D8
:1003A8005EEA430E08BF20EAD37070BD94F0000FD8
:1003B8000FD101F00046400041EB010111F4801F0C
:1003C80008BF013CF7D041EA060195F0000F18BFBD
:1003D800704703F00046520043EB030313F4801FF9
:1003E80008BF013DF7D043EA0603704794EA0C0FB3
:1003F8000CEA135518BF95EA0C0F0CD050EA4106C9
:1004080018BF52EA4306D1D181EA030101F0004145
:100418004FF0000070BD50EA410606BF104619466D
:1004280052EA430619D094EA0C0F02D150EA013679
:1004380013D195EA0C0F05D152EA03361CBF1046BA
:1004480019460AD181EA030101F0004141F0FE4159
:1004580041F470014FF0000070BD41F0FE4141F4DD
:10046800780170BD81F0004102E000BF83F00043D5
:1004780030B54FEA41044FEA430594EA050F08BF37
:1004880090EA020F1FBF54EA000C55EA020C7FEAFB
:10049800645C7FEA655C00F0E2804FEA5454D4EB78
:1004A8005555B8BF6D420CDD2C4480EA020281EA42
:1004B800030382EA000083EA010180EA020281EA7A
:1004C8000303362D88BF30BD11F0004F4FEA0131CC
:1004D8004FF4801C4CEA113102D0404261EB4101DB
:1004E80013F0004F4FEA03334CEA133302D0524261
:1004F80063EB430394EA050F00F0A780A4F101041D
:10050800D5F1200E0DDB02FA0EFC22FA05F2801856
:1005180041F1000103FA0EF2801843FA05F359413C
:100528000EE0A5F120050EF1200E012A03FA0EFCBB
:1005380028BF4CF0020C43FA05F3C01851EBE371E5
:1005480001F0004507D54FF0000EDCF1000C7EEB02
:1005580000006EEB0101B1F5801F1BD3B1F5001F40
:100568000CD349085FEA30004FEA3C0C04F101045F
:100578004FEA445212F5800F80F09A80BCF1004F88
:1005880008BF5FEA500C50F1000041EB045141EA0A
:10059800050130BD5FEA4C0C404141EB0101013CD3
:1005A80028BFB1F5801FE9D291F0000F04BF0146C2
:1005B8000020B1FA81F308BF2033A3F10B03B3F194
:1005C80020020CDA0C3208DD02F1140CC2F10C0224
:1005D80001FA0CF021FA02F10CE002F11402D8BF82
:1005E800C2F1200C01FA02F120FA0CFCDCBF41EA4E
:1005F8000C019040E41AA2BF01EB0451294330BD1D
:100608006FEA04041F3C1CDA0C340EDC04F11404F9
:10061800C4F1200220FA04F001FA02F340EA0300D0
:1006280021FA04F345EA030130BDC4F10C04C4F116
:10063800200220FA02F001FA04F340EA03002946F6
:1006480030BD21FA04F0294630BD94F0000F83F440
:10065800801306BF81F480110134013D4EE77FEA23
:10066800645C18BF7FEA655C29D094EA050F08BF6F
:1006780090EA020F05D054EA000C04BF1946104650
:1006880030BD91EA030F1EBF0021002030BD5FEA94
:10069800545C05D14000494128BF41F0004130BDBC
:1006A80014F580043CBF01F5801130BD01F0004510
:1006B80045F0FE4141F470014FF0000030BD7FEA83
:1006C800645C1ABF194610467FEA655C1CBF0B467E
:1006D800024650EA013406BF52EA033591EA030F95
:1006E80041F4002130BD00BF90F0000F04BF00218D
:1006F800704730B54FF4806404F132044FF00005C0
:100708004FF0000150E700BF90F0000F04BF002138
:10071800704730B54FF4806404F1320410F000459E
:1007280048BF40424FF000013EE700BF42004FEA99
:10073800E2014FEA31014FEA02701FBF12F07F4316
:1007480093F07F4F81F06051704732F07F4208BFCD
:10075800704793F07F4F04BF41F40021704730B5D4
:100768004FF4607401F0004521F000411CE700BF20
:1007780050EA010208BF704730B54FF000050AE0A3
:1007880050EA010208BF704730B511F0004502D5A4
:10079800404261EB41014FF4806404F132045FEAA6
:1007A800915C3FF4D8AE4FF003025FEADC0C18BF4F
:1007B80003325FEADC0C18BF033202EBDC02C2F141
:1007C800200300FA03FC20FA02F001FA03FE40EAD3
:1007D8000E0021FA02F11444BDE600BF4A0011D20E
:1007E80012F5001211D20DD56FF47873B3EB625283
:1007F8000ED44FEAC12343F0004343EA505323FA8F
:1008080002F070474FF00000704750EA013002D103
:100818004FF0FF3070474FF00000704753B94AB9A6
:10082800002908BF00281CBF4FF0FF314FF0FF30F0
:1008380000F088B9ADF1080C6DE904CE00F006F8B7
:10084800DDF804E0DDE9022304B070472DE9F04744
:10085800089D8E4604468846002B4AD18A42174690
:1008680062D9B2FA82F64EB1C6F1200301FA06F84F
:1008780020FA03F3B74043EA0808B4404FEA174E9A
:100888001FFA87FCB8FBFEF1230C0EFB118843EA24
:10089800084301FB0CF29A4209D9FB1801F1FF3019
:1008A80080F0EA809A4240F2E78002393B449A1A83
:1008B800A3B2B2FBFEF00EFB102243EA024300FB98
:1008C8000CFC9C4509D9FB1800F1FF3280F0D6805A
:1008D8009C4540F2D3803B44023840EA0140A3EBF8
:1008E8000C0300211DB1F3400022C5E90032BDE828
:1008F800F0878B4205D90DB1C5E9000100210846F2
:10090800F5E7B3FA83F1002946D1734502D3824251
:1009180000F20581841A6EEB030201209046002D37
:10092800E5D0C5E90048E2E7002A00F09080B2FA75
:1009380082F6002E40F0A4808A1A030C4FEA174E64
:1009480080B2BCB20121B2FBFEFC0EFB1C2243EAC2
:10095800024304FB0CF29A4207D9FB180CF1FF384A
:1009680002D29A4200F2E080C4469B1AB3FBFEF220
:100978000EFB123340EA034302FB04F49C4207D9FE
:10098800FB1802F1FF3002D29C4200F2CA800246F4
:100998001B1B42EA0C40A5E7C1F120068B4022FA56
:1009A80006F71F430EFA01F420FA06F32EFA06FEA4
:1009B8004FEA1749234300FA01F81FFA87FCBEFBE8
:1009C800F9F01C0C09FB10EE44EA0E4400FB0CFE87
:1009D800A64502FA01F209D93C1900F1FF3A80F064
:1009E8009C80A64540F2998002383C44A4EB0E0452
:1009F8001FFA83FEB4FBF9F309FB13444EEA0444DF
:100A080003FB0CFCA44508D93C1903F1FF3E80F018
:100A18008280A4457FD9023B3C4443EA0040A4EBD2
:100A28000C04A0FB02EC64457346E14662D35FD038
:100A38005DB1B8EB030264EB090404FA06F622FA86
:100A480001F31E43CC40C5E9006400214FE7B1FB28
:100A5800F2FC010C41EA0E4180B240EA01423B46F9
:100A680038463C46B846BE462026B1FBF7F1A2EB15
:100A7800080241EA0C4166E7014618E710462CE7F0
:100A8800C6F120022EFA02F3B740B14020FA02F272
:100A98004FEA174E0A43B3FBFEF8BCB20EFB1833FD
:100AA800110C41EA034108FB04F9B04089454FEABB
:100AB800104380B23ED9791808F1FF3C01D289452C
:100AC8001FD8A1EB0901B1FBFEF909FB04F80EFBE5
:100AD800191192B242EA0142424529D2BA1809F1E3
:100AE800FF31C4D24245C2D2A9F102013A44BEE75D
:100AF800F0459DD2BEEB02036CEB070C0138E146D2
:100B080096E7A7EB09094944A8F1020CB1FBFEF9E5
:100B180009FB04F8DBE773467FE7504666E70846BB
:100B2800FDE63B44023A33E7ACF1020C3B441CE7D8
:100B380049469CE7A1EB0901C446B1FBFEF909FB54
:100B480004F8C4E7704700BF0D48854603F028F94C
:100B58000C480D490D4A002302E0D458C450043310
:100B6800C4188C42F9D30A4A0A4C002301E01360E6
:100B78000432A242FBD308F0BBF800F0A9FBFEE761
:100B8800000002200000002088040020EC8F0008EC
:100B9800880400207C1A0020FEE7000070B5044697
:100BA800C36C406998470023656DA4F8643084F8E5
:100BB8006030606904F11C012B460422BDE87040D6
:100BC800184700BF10B40B780A7991F802C01E4C80
:100BD800DB0143EA02134A7843EA0223CA7843EA6C
:100BE8008C3343EA4253DAB242F0050223F07041F3
:100BF800A25C82EA1122D2B2A25C82EA1142D2B28B
:100C0800A25C124C82EA1162A25C43EA027343F0CE
:100C18000503036272B6836C4BB162B690F8243058
:100C280013B9022380F824305DF8044B704700F1B3
:100C38002001032380F82430816462B60422836D86
:100C48005DF8044B40691847848D0008748D0008CE
:100C580030B44B0190F860C090F863401D4D43EAF2
:100C6800011343EA02330CF0010143EA811343EA1A
:100C7800C11304F00F0443EA0423DAB2164C42F01D
:100C8800060243F00601A25C82EA1322D2B2A25CF9
:100C980082EA1342D2B2A25C82EA1363EB5C41EAB5
:100CA8000373036272B6836C43B162B690F8243062
:100CB80013B9022380F8243030BC704700F12001BA
:100CC800032380F82430816462B60422836D40696E
:100CD80030BC1847748D0008848D00080A2A09D092
:100CE80090F83630012B1DD990F83E30012B0DD9E4
:100CF8000020704790F82E30012BF9D8836A012222
:100D080004330B6080F82E2001207047836B4FF06E
:100D1800010C00F13802043380F83EC002640B6015
:100D280001207047036B4FF0010C00F130020433CF
:100D380080F836C002640B60F2E700BF844690F882
:100D48006400022801D00220704743EA021041F8EB
:100D5800040C9CF86C00012804D14FF6CA60885234
:100D6800023292B20A2B05D19CF8100048B3002039
:100D78008CF8100051F8040C70B5344DC4B204322C
:100D88002E5DC0F307247440A1F1040E2E5DC0F35C
:100D98000744744092B22C5DC0F303656C402C4D3F
:100DA8002C5D40EA047041F8040C72B6DCF8481077
:100DB800B9B162B6092B06D00A2B2AD07BB3002022
:100DC80070BD01207047DCF8403019688E4514BFAB
:100DD80003200020DCF84410A1B3022199719A8005
:100DE80070BD092B29D00A2B4FF003030BBF8CF8D9
:100DF8002E308CF824300CF128030CF12003CCF8A9
:100E0800483062B6DCF85830DCF814007146984770
:100E1800D5E79CF82E30012B09D0032070BD9CF833
:100E28002430002BF9D102238CF82430C7E70223A1
:100E38008CF82E30ACF82C20C1E7DCF840300321C8
:100E48009971DCE7CCF84430C7E700BF848D00080F
:100E5800748D000810B590F82430032B044613D085
:100E6800826C0021917190F82E20022A13D0022B57
:100E78001DD100F12001836D8164042240699847E7
:100E8800032384F8243010BD90F82E300022022B62
:100E980080F824200BD104F12800A36DA064A28D52
:100EA800A16A60699847032384F82E3010BD72B692
:100EB800636CCBB10322A3649A7119689A8860693C
:100EC800A36D984794F83630022B07D094F83E303B
:100ED800022B03D00023636462B610BD626C63000A
:100EE80068339B1A6364F7E7A364F5E72DE9F047D5
:100EF80090F86150C269002304460B809DB190F8B8
:100F0800645080F86130012D4ED0022D12D0D5B931
:100F1800836E052B62D0062B15D1C2F30F322946FA
:100F2800FFF796FE0FE090F86230B3B90025284627
:100F3800BDE8F087856E052D00F0D980062D00F0FC
:100F48002581092D3ED000256069636D042204F1D6
:100F58001C0198472846BDE8F08703EB03231B02D2
:100F6800C3F307228C488D4D82F0090243F00F012C
:100F7800825C82EA1343DBB2C35CEB5C41EA037335
:100F8800236272B6A36C002B00F0F48062B694F86A
:100F9800243013B9022384F824300022236D6069B9
:100FA80084F862209847C1E7816E052964D0062934
:100FB800C9D1C2F30F322946FFF74AFE022384F84B
:100FC8006430C0E790F86030B0F85C20A569013360
:100FD800012084F8603020740A80B5E794F81DC0B9
:100FE80094F86D30007F94F86C6094F86E7094F803
:100FF8006F900CF03F0CC009634528BF6346B042B0
:101008000146C2F3863828BF314661F30705C2F3AB
:10101800465AB845414663F30F2528BF3946CA45A5
:10102800D64661F3174528BFCE466EF31F65B0421A
:10103800E5661BD89C4519D8B84517D8CA4515D8B0
:1010480094F87000C2F3021290420FD14A1C013387
:10105800D2B2DBB252014FEA8E1E5B010121A2819E
:10106800A4F80EE0A4F85E3084F8641004F16C0172
:101078002046FFF7A7FD66E7457F90F86CC0017F23
:1010880090F86D0094F86E6094F86FE005F03F05F5
:10109800C909A84228BF284661450F4628BF6746A8
:1010A80067F30703C2F38637C2F34658B742B94617
:1010B80060F30F2328BFB146F04569F31743C146D3
:1010C80028BFF14669F31F636145E3660BD8854283
:1010D80009D8B74207D8F04505D894F87030C2F35C
:1010E80002129342C2D0002384F86430BEE794F819
:1010F8001DC094F86D50007F94F86CE094F86E6011
:1011080094F86F800CF03F0CC009654528BF654610
:1011180070450746194628BF774667F30701C2F3AB
:101128008637C2F34659B742BA4665F30F2128BF3E
:10113800B246C1456AF31741CA4628BFC2466AF398
:101148001F617045E16604F16C010DD8AC450BD800
:10115800B74209D8C14507D894F87030C2F30212D3
:101168009B1AB3FA83F35B0984F864302046FFF7CF
:1011780029FDE8E604F12001032384F82430A16462
:1011880062B60422A36D6069984706E7C2F30F327E
:101198000121FFF75DFDD6E6848D0008748D0008F7
:1011A80010B590F86530044643B1012B00D010BD4E
:1011B800002280F8652080F8613010BDC1691F4A9F
:1011C800CBB2D35C83EA1123DBB2D35C83EA11434D
:1011D800DBB2D35C83EA1163D35C5BB9037F03F0B2
:1011E8000F03062B836609D8042B1FD9012384F823
:1011F800613010BD042380F8623010BD092B15D171
:10120800838B1B09A0F85C30002BEFD0B0F85E2070
:101218009A420FD390F86C208169406903EB42022F
:10122800636D9847012384F8653010BD012384F865
:10123800623010BD022380F8623010BD848D000832
:101248000146002280F86520436D406904221C3164
:10125800184700BF0000000010B594B038220021E4
:1012680006A807F03DFD0020CDE90100CDE9030007
:10127800059004F0F1F99FED147B06220223032464
:101288000F925521082206A88DED067BCDE90D3475
:10129800CDE91012CDE9123304F058FA08B172B64C
:1012A800FEE7042103460F220DEB0100CDE90124DE
:1012B800CDE90333059304F0C7FC08B172B6FEE725
:1012C80004F0F0FD14B010BD0100000000000100A2
:1012D8002DE980480025ADB002F092FDFFF7BCFF74
:1012E800CDE91D55CDE91F55B44E2195F36CB44891
:1012F800DFF8E8B243F00403F364F36C03F004038B
:101308000493049BF36C43F02003F364F36C03F041
:1013180020030593059BF36C43F00103F364F36C1E
:1013280003F001030693069BF36C43F00203F36496
:10133800F36C03F002032A4607934FF40071079BEE
:1013480004F084F94FF400524FF404139C481F959D
:101358001DA9CDE91D23012403F0BAFF02274FF48C
:101368000073974820951DA9CDE91D341F9703F0F8
:10137800AFFFB36C43F00403B364B36C03F004032E
:101388000293029BB36C2343B364B36C0B95234065
:1013980029463C2203931DA8CDE90C55CDE90F55EC
:1013A800CDE91155CDE91355039B0E9507F098FC2F
:1013B8002022294615A807F093FC4FF40046CBE9F4
:1013C8000155CBE90454CBE90B55ABF81C508BF80D
:1013D80024508BF83850CBF83C508BF840504FF0E5
:1013E800A04204255846CBF82070CBF80020CBF853
:1013F8000C60CBF8185002F02DFD08B172B6FEE76C
:101408000B900BA9584603F099FD08B172B6FEE798
:101418006C4F6D4B8DF84400CDE9120014904FF0DD
:10142800A07A0EA95846CDE90FA70E9303F0CAF883
:1014380008B172B6FEE7CDE921501D97ADF89800C6
:101448008DF89A008DF8A4004FF009097F274FF016
:1014580080084FF480731DA95846CDE927831F954E
:101468002594CDF87890209703F02AFA08B172B63F
:10147800FEE7DFF86CE11A90062215A95846CDE977
:101488001757CDE915E2199502F0EEFD08B172B6CD
:10149800FEE7DFF850C10C2315A95846CDE915C35E
:1014A80002F0E2FD014608B172B6FEE7DFF838B196
:1014B8001B90CDE91500CDE91700CDE919003C22B4
:1014C80001901DA807F00CFC0199404ACBF80C606C
:1014D8005846CBE90111CBE90411CBF81850ABF809
:1014E8001C10CBF820408BF824108BF83810CBF860
:1014F8003C108BF84010CBF8002002F0ABFC08B190
:1015080072B6FEE7304B8DF86000CDE919001B90EC
:101518002F4E179615A95846CDE9153A03F052F8FB
:10152800024608B172B6FEE74FF4807358461DA90B
:10153800CDE921521F95CDE91D692097CDF89C80F2
:1015480028932594ADF898208DF89A208DF8A4203A
:1015580003F0B6F9054608B172B6FEE7CDE90E000C
:10156800CDE91000CDE90B00CDE91500CDE9170054
:10157800CDE91900CDE9090008900D901B900146AE
:1015880034221DA807F0ACFB1248134B036040F649
:101598007C13C0E90155446105618561C36004F0AD
:1015A800DDFE08B172B6FEE74FF4805409480E9488
:1015B8000EA905F029F8C8B172B6FEE7001002407E
:1015C800000800480002B0250000C07D000100505E
:1015D8002000F01444060020002C0140FC060020E6
:1015E8000400600800018021900600207D4804F076
:1015F80061FF08B172B6FEE7702309900893794835
:10160800802308A90A9305F00BFA08B172B6FEE721
:1016180001210BAA73480D91CDE90B1105F0ACFA25
:10162800024608B172B6FEE760230825CDE9160028
:10163800CDE9185015931A904FF4007369481B931D
:1016480015A905F0FFF808B172B6FEE7654804224F
:1016580015A905F0F7F808B172B6FEE761482A4601
:1016680015A905F0EFF808B172B6FEE718901B90BF
:101678000C225C4815A905F0E5F808B172B6FEE73A
:1016880003224FF400536425CDE91D00CDE91F0561
:10169800CDE92232CDE92400CDE928004FF00073CE
:1016A800504821941DA92792269305F013FA044661
:1016B80008B172B6FEE74B4802F08EF94A48179413
:1016C8004FF6FF73C0E902434FF08043CDE91D4454
:1016D800CDE91F44CDE91544456004618461036088
:1016E80004F03CFE08B172B6FEE74FF480533E4862
:1016F8001D931DA904F088FF08B172B6FEE7802388
:1017080010223948179315A9159205F089F903464F
:1017180008B172B6FEE7354C3548A3624FF4E111C3
:10172800C4E900010C222046C4E90233C4E90432AA
:10173800C4E90633C4E9083305F082FD014608B15F
:1017480072B6FEE7204605F0CDFD014608B172B637
:10175800FEE7204605F008FE08B172B6FEE720460F
:1017680005F0A2FD044608B172B6FEE700F0DCFE03
:1017780001220321262003F09DFC262003F0D6FC3D
:10178800224603210B2003F095FC0B2003F0CEFC2E
:10179800224621461C2003F08DFC1C2003F0C6FCC9
:1017A80022460121182003F085FC182003F0BEFC16
:1017B80022460121192003F07DFC192003F0B6FC14
:1017C80001222146122003F075FC122003F0AEFC22
:1017D80028202246032103F06DFC282003F0A6FCF4
:1017E800FEE700BF44060020F8050020640500203D
:1017F8000044004072B6FEE7014B186800F056B886
:10180800141A0020014B186800F066B8141A00205A
:10181800014B186800F044B8141A0020704700BF44
:10182800704700BFC389028313FB01F3002BABBFD2
:10183800012305230373837640F20133C1810384B6
:10184800704700BF838BB0F81EC00B4323EA020326
:1018580041EA0C018383C183704700BF90F82030B0
:10186800012B00D0704710B5037B012B044603D031
:10187800032384F8203010BD436800221A710068E1
:10188800032107F03DF8228BB4F90E10206807F009
:101898003DF80028ECD0022384F8203010BD00BFAA
:1018A800C07E7047C08B7047808B704710B5044668
:1018B800FFF7F6FF08B1002010BD2046FFF7F2FF42
:1018C8000028F8D12046FFF7EFFF0028F3D10120C8
:1018D800A07684F8200010BD38B50546FFF7E0FF74
:1018E800044618B1B0F10C0418BF01242846FFF7CC
:1018F800D9FF10B10024204638BD2846FFF7D4FF91
:101908000028F7D1002CF5D00523AB76F3E700BF0C
:1019180010B50446FFF7C4FF0B2801D0002010BD06
:101928002046FFF7C1FF0028F8D10223A376E08301
:10193800012010BDC38B808B43EA0040704700BF75
:1019480090F82100704700BF037B012B01D00120D4
:101958007047B0F90E30002BB4BF4FF0FF300120B4
:10196800704700BFB0F90E00704700BF008B70478A
:10197800036813B10022DA609A617047006800B109
:10198800406907F06BB800BF006806F0ABBF00BF46
:1019980043681888704700BF08B310B5104A114C47
:1019A80002600023237000F0DBF90F48FFF7F6F818
:1019B8000E4806F085FB0E4807F09CF80D4801F02C
:1019C800B3FB0D4806F02EFE0C4801F0ADFB0C48A9
:1019D80006F03AFBFFF722FF0123237010BD704782
:1019E8000000002080070020F0030020E401002010
:1019F800680200202C02002010020020580200205B
:101A08003C020020014B1880704700BF840700206B
:101A1800034B188880B2B0FA80F04009704700BFC5
:101A280084070020014B1880704700BF8207002000
:101A3800034B188880B2B0FA80F04009704700BFA5
:101A48008207002008B5002000F032FB064A07484C
:101A5800136890F829100133136009B9002008BDF4
:101A680006F076F9002008BD781A0020B40300209B
:101A7800F8B5044698B1214E306806F06BFD014672
:101A88001F4D04EBC40305EB8305CA43284692B2F5
:101A9800FFF7D8FE2846FFF74DFFD8B9F8BD19481B
:101AA800164E01F063FC0146174806F0DFFA0746B8
:101AB800306806F04FFD0546144801F057FC014612
:101AC800134806F0DBFD074307F00E0745EA070158
:101AD80089B2D5E756F8240006F0B2FC0D4890F814
:101AE800293023B92046BDE8F84000F00FB906F0C8
:101AF800EDF92046BDE8F84000F008B9700700206D
:101B080000000020580200203C0200202C02002087
:101B180010020020B403002008B5064B1B78012BE7
:101B280000D008BD0020FFF7A3FFBDE8084001F082
:101B3800E5BC00BF800700201E4B1B78CBB170B5F9
:101B48001D4C2388B3B1013B9BB21C4A23801388E8
:101B58009BB21BB11388013B9BB21380184A1388B0
:101B68009BB21BB11388013B9BB21380FFF7D4FFD4
:101B780070BD7047134D00F03FF9FFF751FE29463D
:101B880051F80C0B83689847686030B129460A22DF
:101B980051F8080B0368984708B90123D5E7284688
:101BA80000F014FC2868EA894668A9680A23B04747
:101BB800F3E700BF80070020860700208407002085
:101BC80082070020E003002008B5002000F09EF8FE
:101BD800BDE80840024800228021FFF733BE00BF5D
:101BE8000000002008B5FFF713FE18B9BDE808404B
:101BF800FFF702BEBDE80840FFF704BEF0B4394A5B
:101C0800394B20218EB0D361D161D361D3690D9353
:101C18001021364B0D98D361D161D361D1690C91F4
:101C28004FF0904332490C9CD9614FF48070D861D1
:101C3800D961D9690B914FF481344FF400760B992F
:101C4800DC61DE61DC61D9690A910A982949D961A8
:101C58004020D861D961D969099127490998012596
:101C68004FF00110C861CD61C861C8690890089833
:101C78004FF480654FF48230D861DD61D861D8694E
:101C8800079007981D48C8610225CD61C861C969D8
:101C9800069106991A49D9618027DF61D961D96906
:101CA80005910599D461D661D461D1690491049CE8
:101CB8001449D1610824D461D161D1690391039C8D
:101CC8001149D1610424D461D161D2690292029A86
:101CD800D861DD61D861DB690193019B0EB0F0BC6E
:101CE800704700BF000800482000010010000100F4
:101CF800000101004000010000040048020001004A
:101D080080000100080001000400010070B5104DBA
:101D1800104E0446012355F82000337106F0CEFD1D
:101D280055F824000C4D06F0E7FD26F83400284647
:101D380005F03EFD284605F06BFD284605F096FCAB
:101D4800064B53F82400BDE8704006F079BB00BF8D
:101D580024000020680700205C0000207007002095
:101D680070B5124B124D1348134E1860134C06F001
:101D78002FFA284606F0A4F9304605F03DFB206806
:101D88003246294606F080FD21680D4A0D4806F0C6
:101D9800A3FC0020FFF7BAFF206806F051FEBDE85B
:101DA8007040014600220848FFF73CBD700700203C
:101DB800E4010020280000205C000020240000200E
:101DC800680200205C01002000000020704700BF6E
:101DD80038B5074D05EBC0031B7903B138BD054B7A
:101DE800044653F8200006F0D9FD25F8340038BD24
:101DF800680700202400002070B582B00023A248A4
:101E0800ADF8043001A905F0CFFDA04C05462046E9
:101E1800FFF74AFD18B10A23E37602B070BD2046E9
:101E2800FFF740FD70BBE37E132BF6D801A252F8F2
:101E380023F000BFCD1F0008231E0008231E000842
:101E4800231E0008811F0008231E00084D1F0008DC
:101E5800231E0008271F0008231E00088D1E0008E7
:101E68001B1F0008231E0008231E0008231E00084D
:101E7800231E0008B51E0008231E0008231E0008A4
:101E8800951E00080B23E37602B070BDA37E052BD8
:101E980000F0B4807E4806F099FC0246002840F025
:101EA800C1807A481021FFF7CDFCB6E7A37E052B49
:101EB80000F0A480FFF7ACFD0028AED0754E764D3B
:101EC800306806F0BDFA7549754B086875490122F6
:101ED8001A7106F0EFFC6C4805F0C8FB0020FFF70C
:101EE80015FF6A48FFF730FDC1B2674805F026FEC6
:101EF80029466D4A644805F093FC04236248E97A50
:101F0800E37605F10C0205F0C1FB306806F068FACB
:101F180083E7A37E022B80D1002363837DE7FFF74D
:101F280087FD00283FF479AF5C4B5E49186806F0DE
:101F3800C1FC5C4806F0D0FD534805F097FB002330
:101F480063836AE7A37E052B58D05048FFF786FCC9
:101F58000020FFF73DFF4C48534A4F4905F060FC0D
:101F6800494805F077FE002D7FF457AF47482A46C9
:101F78002021FFF767FC50E7A37E052B3ED044489D
:101F880006F024FC0246002842D140481021FFF701
:101F980059FC44480DF1060106F002FE3C4806F0E3
:101FA80065FC00283FF439AF374805F0CBFD0546FE
:101FB80029463C4806F082FE002D3FF42EAF13233D
:101FC800E3762AE7A37E03F0FD03012B7FF425AF18
:101FD8002E48FFF7B9FC01462D4806F09FFB324911
:101FE8002B4806F0E7FB2B4B0021186806F0C8F9D0
:101FF8001420FFF707FD1023E3760EE70020FFF714
:1020080085FE4FF44870FFF70DFD0823E37604E7DB
:102018001D4805F001FE214B186806F0BFFC204B57
:102028001880B6E71F480DF1060106F0B9FD054610
:102038001C4806F051FE15B900283FF4EEAE184BC7
:102048001A481D8806F05AF801B205FB01F1134D34
:10205800164806F049F80C49286806F02BFC0020C1
:10206800FFF7B4FE0020FFF7B3FE074805F008FEAF
:10207800094806F01BFA286806F0E6FC0348FFF753
:10208800EDFB0623E376C8E65C0000200000002094
:102098005C01002070070020280000202400002098
:1020A800680700206802002010020020E4010020D8
:1020B8002DE9F041384BDB7E062B82B005460DD06A
:1020C800042B46D03548002106F0F8F934480DF1C4
:1020D80006018388ADF8063006F010FD314C324E0B
:1020E800204605F033FD01F081FA01F03BFA2F4854
:1020F80006F0C6FB2E4B31888046186806F094F827
:1021080094F86730002B31D12A4B1F6807B17F69DB
:10211800244805F017FDC8B1B4F90440384606F064
:10212800A1FCA4B2B8F1000FCCBF04F58044A4F51B
:10213800804423B2194CF38007462046638206F098
:10214800BFF9F0B9284602B0BDE8F081B7F90440FC
:10215800E4E7164806F07CFB0028B3D0134806F0E5
:102168008FFB01460D4806F0A9F9AFE741460B4839
:1021780006F0DEF9094806F05FF8284602B0BDE827
:10218800F081204606F058F80648394605F000FD6B
:10219800284602B0BDE8F081000000202800002099
:1021A800680200205C000020680700205C01002015
:1021B8007007002024000020F8B501F017FA01F09C
:1021C800D1F92148214F224C06F05AFB214B39887E
:1021D8000546186806F028F894F867300BBB1E4BC4
:1021E8001E6806B176691A4805F0ACFCB0B1B4F9BE
:1021F8000440304606F036FCA4B2002DCCBF04F5EE
:102208008044A4F5804423B2144CFB800646204643
:10221800638206F055F968B90020F8BDB6F90440A4
:10222800E7E729460D4806F083F90C4806F004F85C
:102238000020F8BD204605F0FFFF0548314605F0AF
:10224800A7FC0020F8BD00BF5C0100206807002043
:102258005C000020700700202400002028000020D7
:102268002DE9F04F89B08568334B06934FF000088D
:10227800324B4468B0F90C20ADF816800646A0F839
:102288000E806F18CDF80C800793C5F10109A2F1F3
:10229800020A002A0FFA8AFE0DF116031FFA8AFABB
:1022A80036DD34F802CB0DF120082CF007000CF0D5
:1022B800070B1CF0060F224680B20CF0380108EB21
:1022C8008B0B2DD15BF808BCCDF800E0D847BDF8E2
:1022D800161005EB0903DBB2AAEB0102012B12B2BF
:1022E8000C4412D0BD4221D005F8010BF38901330B
:1022F800F3810028CBD0072812D001230A280393A2
:10230800C5D1039809B0BDE8F08F002AEAD103903F
:10231800039B002BF5D10398F38109B0BDE8F08F3A
:1023280001230393039809B0BDE8F08F08230393B2
:10233800039809B0BDE8F08F6D2500086D260008E8
:102348002DE9F04786B00023ADF80E30C381B0F810
:102358000C801C4B04931C4BD0F8049086680593A2
:10236800B8F1000F29D007460CB24D4612E05EF8CE
:1023780008AC0094D047A8EB050319FA83F39BB285
:10238800E0B9BDF80E10FA89641A0A440E44FA81BD
:1023980024B29BB135F802CB0DF1180A2CF00700D6
:1023A8000CF0070E1CF0060F0DF10E03324680B23A
:1023B8000CF038010AEB8E0ED9D0012006B0BDE82A
:1023C800F08700BF3D2A0008712B000870B504464D
:1023D8004568226835F8023B92898089013A91B2B2
:1023E80003F47F42023823F0070CB2F5807F82B0F5
:1023F80080B21FFA8CFC39D0013B494E656003F06E
:10240800070303EBC3030025BCF1380FA081E58166
:1024180006EB830667D8BCF1380F1ED8DFE80CF04E
:10242800481D1D1D1D1D1D1D501D1D1D1D1D1D1D76
:10243800431D1D1D1D1D1D1D3B1D1D1D1D1D1D1D80
:10244800351D1D1D1D1D1D1D551D1D1D1D1D1D1D64
:10245800311D1D1D1D1D1D1D5D0000230220A268CC
:10246800D054E3890133E38102B070BDCCF3C40CCE
:102478000023BCF1010FA0816560E3813BD90D20E9
:10248800EDE73046FFF70CFA28B13046FFF724FA9B
:10249800E3890020E3E73046FFF708FA80F00100FF
:1024A800E389C0B2DBE72046FFF74AFFE389D6E7B6
:1024B800A36804210122E1811A70E3890020CEE794
:1024C8002046FFF7CDFEE389C9E73046FFF7E8F974
:1024D80006281DD0E3890020C1E73046FFF718FA27
:1024E800E3890020BBE7BCF1780FB6D102F02CFEDF
:1024F800E3892846B3E70B4B53F82C6076B1A36801
:1025080000930AB204F10E032946B047E389A6E70F
:102518003046FFF72DFAE3890020A0E73346AEE7FF
:10252800000000208807002008B503F091FC0A4B42
:10253800A3FB0030C00902F019FE084B00221968FD
:102548004FF0FF3002F0B6FD0548FFF725FABDE869
:102558000840FFF753BB00BFD34D6210840400202E
:10256800141A002010B40839BDF904C0202912D863
:10257800DFE801F0171111111111111121111111B9
:10258800111111112F1111111111111139111111ED
:10259800111111114D0000221A8007205DF8044B1B
:1025A800704748284FF0010214BF052004205DF849
:1025B800044B1A807047B0F5656F39D042D9B0F531
:1025C800696F35D041F65832904214BF0520042077
:1025D8002FE018284FF0040214BF052010465DF8BC
:1025E800044B1A8070470121198092F9000028B322
:1025F8001FFA8CF003E0198012F9014FF4B101F1D0
:10260800010C81421FFA8CF1F5D30420C6E7128829
:10261800023292B21FFA8CFC62451A801AD8A82896
:10262800F3D01BD820F040002828EED00520B5E7CD
:10263800002002225DF8044B1A80704700231370B3
:102648000420ABE720F04000B0F5B26F14BF0520BE
:102658000420EEE700221A800A209FE7E828E5D147
:10266800D3E700BF30B591B00839BDF950C01C465A
:10267800202912D8DFE801F01611111111111111DA
:1026880026111111111111115611111111111111D8
:102698004111111111111111640000232380072029
:1026A80011B030BDB0F5D96F00F0158100F2D080BF
:1026B80020F08000482814BF05200420012323802F
:1026C80011B030BDB0F5696F118811D000F2B28039
:1026D800B0F5887F00F00A8100F2ED80902800F0C4
:1026E8000A81D02840F09781B04809B205F0F2FC81
:1026F80000200223238011B030BD0121218092F9EE
:102708000030002B00F092801FFA8CF305E0218046
:1027180012F9010F002800F08980481C8B4281B211
:10272800F5D885E0582800F0DB80982800F09D80D7
:10273800182814BF052004200423238011B030BDBD
:10274800B2F800E00EF1020189B21FFA8CF3994247
:10275800218000F28680B0F50A7F00F0D18040F237
:102768009280B0F5A56F00F04081B0F5FD6F40F0A4
:10277800978053898E4C1089918940F67C1C0CFBFC
:1027880003F3A4FB03535B09ADF82C30938A0CFBCD
:1027980000F0A4FB00500CFB03F35588ADF8225061
:1027A800A4FB03535B09ADF81A30D38A40090DF135
:1027B8001A050CFB03F3A4FB0343ADF82A00148BA2
:1027C800D08901958DF82E40548B7A4DADF81E4076
:1027D8000DF11E04039449025B0907AC4002029400
:1027E800ADF81C30A5FB01140CABA5FB0050009301
:1027F8004009518AADF818006F48158A0F95A0FB5B
:1028080001018908ADF830109188D288ADF8201000
:102818006409ADF824206948ADF8164006AB0DF1FF
:10282800160208A905F044FA002039E700231370BE
:10283800042035E741F29043984253D032D941F20F
:10284800D043984240F0D880584805F07BFC4FE7C9
:10285800B0F5E16F3DD11178594805F0BDFE002073
:102868002CE7002323800A201AE7B2F900305549E3
:10287800554881FB0321A1EBE371002209B2FEF761
:10288800D1FF002058E7B0F5D47F00F0A18007D829
:10289800A828CDD000F2C18020F040002828C7D059
:1028A8000520FDE641F25043984240F0B4803F488D
:1028B80005F01EFC1CE7B0F5656F3FF419AF00F298
:1028C800AA8020F04000B0F5B26F0CBF04200520AC
:1028D8000FE70520F2E61178394805F065FEBEE7F6
:1028E800042029E7314805F011FC01E72F4809B217
:1028F80005F020FCFCE62D4809B205F0E9FBF7E6F7
:102908001EF0070FAFD15FFA8EFEBEF12F0FAAD8C7
:102918005FEADE0E88D0B2F902302A49D58881FBF9
:102928000340A0EBE370294B14899C81BEF1010F91
:102938001D82D8813FF478AFB2F90A40158A81FB2D
:1029480004C0A0EBE470BEF1020FD4899C835883C5
:102958001D833FF469AFB2F91240158B81FB04C0A7
:10296800A0EBE470BEF1030FD48A1C85D8849D8443
:102978003FF45AAFB2F91A40158C81FB04C0A0EBA2
:10298800E470BEF1050FD48B9C8658861D867FF4B3
:102998004BAFB2F92200148DD28CA3F8402081FBF2
:1029A8000051A1EBE071D9879C873DE7E401002045
:1029B8001F85EB5189888888ABAAAAAA5C000020E9
:1029C80028000020ABAAAA2A000000205C010020F1
:1029D800D2F80210144BD28883FB0103A3EBE171F8
:1029E800124809B2FEF71EFF1EE71148911C11B0EC
:1029F800BDE8304005F098BA41F2CF4398420AD971
:102A080041F6902398420CD041F65833984214BFAF
:102A1800052004206DE605206BE6E8283FF408AFA2
:102A28003EE7042065E600BFABAAAA2A0000002002
:102A3800B403002010B5A1F1080CBDF908E0BCF101
:102A4800200F12D8DFE80CF01B1111111111111110
:102A58002711111111111111221111111111111137
:102A680035111111111111111300072010BD28285B
:102A780029D012880232052092B21A8010BDBEF108
:102A8800000F1EDD01221A80052010BDBEF1030FC4
:102A980015DD0422F7E7BEF1010F10DDB0F5656F13
:102AA8005AD0B0F5696F14BF0520002002221A80A1
:102AB80010BD20282CD060280FD00022E3E7082082
:102AC80010BD084610BD1FFA8EFE0A21BEF10B0F7D
:102AD800118035D80C220820CFE7204C94F900004B
:102AE8000121198080B11FFA8EFEA44608E002F881
:102AF800010B1988013189B219801CF9010F18B12D
:102B08007145F4D3062010BD00231370002010BDBA
:102B1800134C94F90000012119800028F4D01FFA01
:102B28008EFEA44609E002F8010B1988013189B22A
:102B380019801CF9010F0028E6D08E45F3D8E1E78B
:102B4800084948680C680989C2F80600C2F80240BA
:102B5800518100200C2290E70020A7E7108F000881
:102B6800E88E0008DC8E000870B590B01D46A1F113
:102B78000803BDF950C01446202B12D8DFE803F033
:102B88002F111111111111115711111111111111C9
:102B9800421111111111111173111111111111118A
:102BA8001400072010B070BDB0F5947F00F0BB8111
:102BB80064D8A82804F1020200F01082E82800F086
:102BC8006381682840F014821FFA8CFC3C23BCF116
:102BD8003D0F238000F23F823E23082069E0BCF1CC
:102BE800000F40F36E81C82800F0078200F2AF8022
:102BF800482800F05481882840F00382BC48FEF73A
:102C08009FFEAFE0BCF1030F35DD582800F05B8173
:102C1800982800F06081182840F0AA80B448FEF790
:102C280089FE2060002004232B8010B070BDBCF109
:102C3800010F20DDB0F5656F10D072D8B0F5887F30
:102C480000F0358100F26281902800F0F581D028EB
:102C580040F0F081A74805F043FA208000200223C5
:102C68002B8010B070BDA02843D0E02824D00023CA
:102C78002B80052096E7082010B070BDB0F50A7FBC
:102C880000F06981B0F5FD6F74D0B0F5D47F40F0E5
:102C9800AF819748FEF766FE00EB40004300C4F89A
:102CA80002309348FEF762FE0623E080238000206E
:102CB80008232B8010B070BD8F4B1A6801232B801E
:102CC80002F1240192F924207AB11FFA8CFC08E061
:102CD80004F8012B2B8801339BB22B8011F9012FAB
:102CE8001AB19C45F4D806205CE700232370002025
:102CF80058E7824A012311682B8091F90020002AA5
:102D0800F3D01FFA8CFC09E004F8012B2B8801335F
:102D18009BB22B8011F9012F002AE6D09C45F3D8ED
:102D2800E1E741F29043984200F0C68040F26B819F
:102D380041F2D043984200F0738141F690239842C3
:102D480040F078816A48FEF723FE208086E7B0F5D8
:102D5800D96F00F0A880B0F5E16F40F05281684863
:102D680005F038FC2070002001232B8010B070BDC6
:102D7800052058E70DF11E0107ABCDE902310DF131
:102D88001A020CABCDE900325E485F4E06AB0DF17E
:102D9800160208A904F0B2FFBDF82220BDF81600FB
:102DA8000023194662F30F03BDF8202062F31F4386
:102DB800BDF82420C4F8023062F30F01BDF82A20C0
:102DC800BDF82C304FF0640C0CFB02F20CFB03F343
:102DD800A6FB02C2920AA6FB036301329B0A62F3B6
:102DE8001F4101330828C4F80610638140F22B8183
:102DF800FDF78AFC3CA3D3E90023FDF709FAFDF7A8
:102E0800EDFC83B2BDF81800A381082840F21981AF
:102E1800FDF77AFC34A3D3E90023FDF7F9F9FDF7B0
:102E2800DDFC82B20023194662F30F030F9A62F3A6
:102E38001F43BDF83020C4F80E3002EB42025200A6
:102E4800BDF81A30642062F30F012F4A00FB03F328
:102E5800A2FB03639B0A013363F31F41BDF81C30D7
:102E6800C4F8121000FB03F3A2FB03239B0A0133EF
:102E78009DF82E10BDF81E20E3821A23238021839B
:102E880062831C23002014E71FFA8CFC0B23BCF17F
:102E98000C0F238000F2F9800D23082009E714485D
:102EA800FEF7FEFC5EE7164805F06AFB5AE7114894
:102EB80005F042F92080D1E60E4805F021F920807E
:102EC800CCE608466EE60A48FEF758FD00EB4000DF
:102ED80040002060A6E60648FEF756FD00EB4000DD
:102EE800400020609EE600BFB81E85EB51B8BE3F8B
:102EF80000000020E4010020A4020020AC02002011
:102F0800280000205C000020A990F76BB0F5B26F94
:102F180000F08B80B0F5BA6F40F08C80684805F0FF
:102F2800BDF820809AE61FFA8CFC0C23BCF10D0F2B
:102F3800238040F28D80634B186859689A68DB6873
:102F4800C4F80E30C4F80200C4F80610C4F80A2009
:102F58000E230020ADE61FFA8CFC2823BCF1290FB4
:102F6800238072D9584BB3F90E20188A9989218188
:102F780002EB4202E0805200988BC4F80220B3F9B9
:102F88001A20198B218202EB4202E0815200188D2F
:102F9800C4F80A20B3F92620998C218302EB420257
:102FA800E0825200988EC4F81220B3F93220198EAC
:102FB800218402EB4202E0835200B3F84000C4F8D7
:102FC8001A20B3F93E20998F218502EB4202520064
:102FD800E084C4F822202A2300206AE61FFA8CFC29
:102FE8001023BCF1110F23805CD81223082060E65F
:102FF8002388023305209BB25BE6334B93F84A00E3
:10300800B0E60520B0E6B0F5696F3FF427AE41F2AF
:10301800504398420ED12D4805F068F820801DE6EF
:103028002A4805F08DF8208018E6294804F0DEF9D2
:10303800208013E6052012E6244805F04DF820808C
:103048000CE60122EEE60123DCE62A23082030E61E
:103058000E2308202DE61F4B1B6803F1300C1C685B
:1030680058689968DE68D66010336345146050600C
:10307800916002F11002F2D1186859689B68936058
:10308800106051603E23002013E6134B1B6819683B
:1030980058685060116019899B7A937211810D23C9
:1030A800002006E60D4B1B6858681C689968DB68A9
:1030B800D36050601460916012230020F9E500BFCE
:1030C8003C020020B00200205C010020E401002046
:1030D80010020020A4020020A8020020A002002064
:1030E80000F038000838C0B210289ABF014B185CAD
:1030F80000207047808F000800F03803102B03D0A1
:10310800074B0B600520704720F0070041F690231D
:103118009842F5D1034B5B680B600020704700BFF5
:10312800181A00200000002070B58C4C2268002A74
:1031380033D090F804C0137963451ED06168002924
:1031480000F0D3800B79634536D0A568002D00F0D8
:10315800AD80FF222B79634500F0B880E568002D2B
:1031680000F0BC802B79634500F0CE80032A98BF1D
:10317800036836D9FF22027370BD03681268934250
:1031880031D06168002900F0DA800A79624500F0E0
:10319800CB80A568002DDCD189E06168002900F0AA
:1031A800A88090F804C00B79634506D0A568002D67
:1031B800D0D103682A460BE0FF22036809689942C8
:1031C80000F0A880A568002DC4D1042A6FD82A462B
:1031D800E16831B10D79654503D10968994200F07C
:1031E8008180114601E0002211465D4D44F821001E
:1031F8000024A64645F831409C6862F3070EE607AE
:1032080062F30F2E22D45C6824F004045C6004246A
:103218001C605C6824F020045C6020241C609C68AE
:1032280024F0404424F03F0444F000449C609C682F
:10323800002CFCDB1C68E50708D44A4D9C682C4030
:1032480044F001049C601C68E407F7D5464D01EB87
:1032580041014C002E1D012126F804E04FF0000E1C
:1032680005F804E01C6B01FA0CF124F00F04BCF122
:10327800090F1C6341EA8C610CEB4C041FD841EA2E
:103288000451CD0D05F00405143386685C59C1F36B
:1032980004514FF0070E06FA01FC0EFA01F124EA78
:1032A800010141EA0C015951027370BD0368E268DB
:1032B80012B1117961453ED00222114695E71E3CB4
:1032C80041EA045141F00071DBE70A4603682968C6
:1032D80099427FF443AF0222114686E7042A036825
:1032E8007FF67FAF032211467FE7A568CDB10122A3
:1032F80030E7A568D5B190F804C02B796345E4D0D0
:10330800E56855B10A462DE72968036899427FF4B4
:103318002DAFE7E70122114667E72A460368114601
:1033280063E70368012253E7FF2247E790F804C0E8
:1033380003682A464CE712689A42D3D0BCE7A568CE
:10334800002DEFD02A79624506D0E5680122002DCC
:103358007FF408AF114648E70122B8E7601A002059
:10336800401A0020C0FFFF7F281A002030B5037BD9
:103378005E4A03EB43014FEA430C12F811000028A0
:1033880038D1117891B904209179002975D1117B30
:10339800002977D1917C002900F09A80D17D99424B
:1033A80040F2A0804FF0030E704603E051798B4243
:1033B800EAD286460CEB030402EB440400EB40001F
:1033C800617101EB410184F804E002EB4101484CD2
:1033D8000B7102EB4000217843710CEB03000125CF
:1033E80001EB410122F8105002EB41014978A94252
:1033F80018BF23703F4991F85410002938D13E492D
:1034080051F823100C7908680121092C04EB4405B4
:1034180001FA04F141EA846184BF1E3D41EA055185
:10342800046B94BF41EA055141F00071090D01F4A4
:10343800F86124F4F86421430163016C816821F088
:10344800004121F03F0141F0040181600168490712
:10345800FCD50CEB030102EB4101006C244D91F803
:1034680005E085F800E020F00F00022448804C7049
:103478009C4402EB4C02508830BDD17A8B421DD35C
:10348800117BF9B1517C994228D8917C002985D1CA
:103498000221084600EB40000CEB030402EB440455
:1034A80002EB400021714179617101EB410102EBAE
:1034B80041010F4C0B71437121788EE74FF0010EDB
:1034C800704677E7917C00297FF468AF0121E0E737
:1034D8000028DED0064C194623707EE74FF0020E16
:1034E800704667E703200146D4E700BF281A00208A
:1034F800241A00205C000020601A0020144B2DE9DB
:10350800F0411C6824B1134D267B2B78012B01D088
:10351800BDE8F0812046FFF729FF0F4B18800F4BBD
:1035280006EB460203EB420301465B780BB102232C
:103538002B700B4B53F83670002FE9D003EBC60302
:1035480020465A6800232B703B46BDE8F0411847D7
:103558001C1A0020201A0020221A0020281A0020F5
:10356800401A00201E4B1F491A7802EB420311F83B
:103578001330A3B31C4B10B553F822301868042439
:10358800046093F804C001230CEB4C04BCF1090F50
:1035980003FA0CF343EA8C6384BF1E3C43EA0453EA
:1035A8004FEA420E98BF43EA0453964488BF43F05B
:1035B8000073026B1B0D03F4F86322F4F8621343E3
:1035C8000363036C836823F0004301EB4E0123F08F
:1035D8003F03012443F0040383604C7010BD70471F
:1035E800241A0020281A0020601A002030B412483B
:1035F800124A037803EB430112F8114002EB410130
:103608006CB10F4C54F82340246825686D074FEAC5
:10361800430C06D49C4402EB4C025379037030BC33
:1036280070474D7815F0FD0FF4D0246C24F00F048A
:103638004C8002244C70EDE7241A0020281A002040
:10364800601A0020444BDA69520610B509D543497F
:103658004348CA69402422F00102CA611C62FDF78E
:10366800F9FB3D4BD869DA69D9699B684C076AD57B
:10367800D8071ED5384B0E221A624FF0402202F5A9
:10368800816353E8003F23F0010302F5816040E8BD
:1036980000310029F3D14FF0402202F5806353E84E
:1036A800003F43F0100302F5806040E80031002934
:1036B800F3D1294BDA691B68D20643D5DB0641D51D
:1036C8004FF0402202F5806353E8003F23F01003D7
:1036D80002F5806040E800310029F3D14FF0402224
:1036E80002F5816353E8003F43F0010302F581606E
:1036F80040E800310029F3D14FF0402202F5816300
:1037080053E8003F23F0400302F5816040E80031B0
:103718000029F3D1104B5B6A4FF0402202F5816318
:1037280053E8003F43F0400302F5816040E8003170
:103738000029F3D1094B0A480222BDE810405A601B
:10374800FDF77EBD10BDD907B3D502F0020200F027
:10375800080002438ED1ACE700440040000002405C
:10376800F003002008B5FEF72FFAFEE710B50D4C60
:103778002378022B0FD00133DBB20B4A2370136876
:103788009B0704D5022309485360FDF709FDBDE8EE
:103798001040FEF7D1B900F04BFB01F003FD012307
:1037A800EBE700BF7804002000000240F00300208F
:1037B800044B5A69920400D470474FF400525A617E
:1037C800FEF710BA0004014000B50E4B1A6E42F025
:1037D800010283B01A661A6E02F001020092009A82
:1037E8009A6D42F080529A659B6D03F08053019365
:1037F8000420019B01F04CFC03B05DF804EB01F0E0
:103808009DBF00BF0010024010B50446A0B00021C3
:1038180054220BA8CDE90611CDE908110A9105F04B
:103828005FFA2368B3F1A04F04D0414A934245D0D0
:1038380020B010BD4FF400424FF080530BA80B92FC
:103848001C9302F037FB002868D13A4A1368013309
:10385800012B136009D1384BDA6C42F40052DA6458
:10386800DB6C03F400530193019B334BDA6C42F099
:103878000402DA64DA6C02F004020292029ADA6C48
:1038880042F00102DA64DB6C0C20032103F001032F
:10389800CDE906010393002406A92848039B089450
:1038A80001F016FD022203234FF0904006A9CDE94E
:1038B8000623089401F00CFD20B010BD4FF400421F
:1038C8004FF080530BA80B921C9302F0F3FA40BB05
:1038D800184A13680133012B136009D1164BDA6CAF
:1038E80042F40052DA64DB6C03F400530493049B43
:1038F800114B1248DA6C42F00402DA64DB6C9FED7B
:103908000A7B03F00403059306A900238DED067BCB
:10391800059A089301F0DCFC20B010BDFDF76AFFA2
:1039280093E7FDF767FFD3E73000000003000000CE
:1039380000010050701A00200010024000080048E2
:1039480010B5026822498AB000238A42CDE90433BF
:10395800CDE90633089310D0B2F1804F01D00AB0F8
:1039680010BD1C4B9A6D42F001029A659B6D03F0E5
:1039780001030393039B0AB010BD03F1804303F5D1
:1039880004339FED117B1A6E42F400621A661A6EB8
:1039980002F400620192019ADA6C42F00102DA64E0
:1039A800DB6C03F0010302930122062304A94FF004
:1039B80090408DED047B029C0692089301F088FCF0
:1039C8000AB010BDAFF300804000000012000000F4
:1039D800002C014000100240D0B5274A016888B089
:1039E80000239142CDE90233CDE90433069301D097
:1039F80008B0D0BD03F1804303F504338020DA6CAE
:103A080042F00102DA64DA6C02F001020092009AD4
:103A1800DA6C42F00202DA64DB6C022103F0020382
:103A2800CDE90201062401930126022702A94FF0DD
:103A38009040019B0694CDE9046701F049FC02A976
:103A4800032202230D480694CDE90223CDE9046739
:103A580001F03EFC4FF4E0620223CDE902234FF06F
:103A680090400222022302A9CDE90423069401F022
:103A78002FFC08B0D0BD00BF002C01400004004856
:103A880070B504469CB00021542207A8CDE9021164
:103A9800CDE90411069105F023F9374B22689A42C3
:103AA80001D01CB070BD022307A8079302F002FAE8
:103AB80000284DD1314B324E9A6D42F400329A654E
:103AC8009A6D02F400320092009ADA6C9FED267B20
:103AD80042F00102DA64DB6C8DED027B9FED247B02
:103AE80003F00103019302A907234FF09040019AC4
:103AF80006938DED047B01F0EBFB22491A2200238B
:103B0800C6E9001230468022C6E90233C6E904231A
:103B1800C6E90633336201F049FBF8B91A4D1B496F
:103B2800C4F880601B220023C5E900122846102132
:103B38008022C5E90213C5E90533C5E90733B46234
:103B48002A6101F033FB30B9E567AC621CB070BD87
:103B5800FDF750FEAEE7FDF74DFEF5E7FDF74AFE2F
:103B6800DCE700BFAFF300800C000000020000009B
:103B78000000000000000000004400400010024067
:103B88000405002008000240A40400201C00024094
:103B980008B54FF0A0431A68120602D55A681006F5
:103BA80010D40C4B1A6811060BD55A68120608D5A2
:103BB80009490A48C97A80221A60BDE8084003F01A
:103BC80073BE08BD04490548C97A80221A6003F00B
:103BD8006BFEE6E700010050280000205C00002092
:103BE80038B5164CA36C1B681A69910719D5DA68A1
:103BF800920716D56FF002021A6194F8FC30012B77
:103C080010D073B9A36B0E4D1988284604F012FC26
:103C1800E97A05F10C02204603F038FD012384F807
:103C2800FC3038BD94F86730002BFAD020460021CC
:103C380003F0AEFFBDE83840FEF7BEBA5C000020D6
:103C480028000020024B6FF001021A61FDF7FABE4E
:103C5800002C014008B50C4B1A69110605D56FF008
:103C680080020A481A6104F015FC074B1A69D2054C
:103C780005D56FF4807205481A6104F00BFCBDE8A5
:103C88000840FDF759BF00BF002C01402800002064
:103C980030B4026802F1080151E8003F43F0010323
:103CA80041E80034002CF7D1C168194D43686C5CB9
:103CB800234402F1240199604023136202F10801B0
:103CC80051E8003F43F0400341E80034002CF7D1AD
:103CD8004023136252E8003F43F0400342E80031BA
:103CE8000029F7D102F1080151E8003F43F08003B1
:103CF80041E80034002CF7D101698368695C0B4402
:103D080002F128004021986030BC1162704700BF62
:103D1800948F00080369806810B40B4CE35CC458A6
:103D2800E40700EB030C0CD4CCF80C10DCF80410FE
:103D38006FF30F010A43CCF80420C25842F0010285
:103D4800C2505DF8044B7047948F000810B4C368E4
:103D58000C4C4068E35CC45800EB030C24F00104ED
:103D6800C450CCF80C10DCF804105DF8044B6FF369
:103D78000F011143CCF80410C25842F00102C2509E
:103D8800704700BF948F000802681023136252E83E
:103D9800003F43F0100342E800310029F7D1704793
:103DA800034AD2F8883043F47003C2F88830704769
:103DB80000ED00E038B50F4B1B680BB9012038BD8A
:103DC8000D494FF47A720546B2FBF3F30868B0FB6D
:103DD800F3F001F0CBF904460028EFD10F2DEDD810
:103DE800024629464FF0FF3001F064F9034B2046A4
:103DF8001D6038BD800400207C040020840400205D
:103E08000A4A136843F4807310B50320136001F065
:103E18003FF90420FFF7CEFF10B10124204610BD62
:103E28000446FFF7D1FC204610BD00BF0020024029
:103E3800034A0449136809680B441360704700BFBC
:103E4800741A002080040020014B1868704700BFD6
:103E5800741A002030B583B00023019300285CD089
:103E6800C56D0446002D00F0C180226893689B0050
:103E780005D5936823F0204323F03F0393609368AC
:103E8800DD0019D46F4B70481B6891689B09A0FB33
:103E9800030321F010419B0921F03F0101335B002E
:103EA80041F0805191600193019B2BB1019B013B33
:103EB8000193019B002BF9D19368D80030D4E36DAE
:103EC80043F01003E365236E0120034323669368E0
:103ED80013F0040FE36D1CD1D9061AD4E36D23F453
:103EE800817343F00203E3659368DB0729D4B2F1D9
:103EF800A04F17D0554B9A4214D05549554B896855
:103F08009B680B43544989680B43D90719D4534913
:103F180011E0E36D43F01003E365012003B030BD09
:103F28000020D4E7494B4FF0A04189689B680B43B8
:103F3800DD0706D44A498B68656823F47C132B4354
:103F48008B60E568E36B94F824102B43A5682B433A
:103F5800657F012943EA453343EA01434CD0E16ACE
:103F680021B1256B01F4787129430B43D5683D498C
:103F780029401943D1601369616B23F040630B43F7
:103F8800136193681B0722D4D16894F83830257FD1
:103F980021F480415B0021F0020143EA85330B43A1
:103FA8002169D3601369002933D043F48033136146
:103FB800D2F8C0306FF30D030B43C2F8C03094F849
:103FC8004030012B2FD0136923F00103136163697B
:103FD800012B16D0136B23F00F031363E36D23F04B
:103FE800030343F00103E36503B030BDFFF70CFCA6
:103FF800256684F8585038E7A16A013943EA4143F5
:10400800ADE7116B236A21F00F01013B0B431363EA
:10401800E4E723F480331361D2F8C0306FF30D0363
:10402800C2F8C030CBE71169636CA56C6FF38A01E5
:104038002B430B43E16C0B43216D0B4343F001030E
:104048001361C4E77C040020632D3E050001005085
:104058000004005000050050000600500007005002
:10406800000300500740F0FF2DE9F04190F8582078
:1040780082B00346012A4FF00000019000F06881E9
:104088001A68012083F858009468670767D448685D
:104098004FEA901E00F01F0C0EF00C0E086802F19B
:1040A80030041F2654F80E50C0F3846000FA0CF058
:1040B80006FA0CFC25EA0C0C40EA0C0044F80E0049
:1040C8009068460755D5906808689468E40712D444
:1040D800CE68B24CD2F8B05006F01807FC40C0F3D6
:1040E8001207044025EA07052C43C2F8B040AC4C3F
:1040F800A64200F09180AB4908422ED0B2F1A04F01
:1041080000F0DB80A8498A4200F0F08001F5C06128
:10411800A64C8968A04201F0E07500F0F380A44C39
:10412800A04200F0EF80A34CA04200F02A81A24CEC
:10413800A04212D1490210D49B498A420DD09F480F
:1041480001F5C061B2F1A04F08BF01468A6822F0AC
:10415800E0722A4342F480028A60002003E0DA6DAC
:1041680042F02002DA65002283F8582002B0BDE848
:10417800F081946808682507A7D48D68C0F30456B1
:104188000724C00DB440B5F1004F00F004006FEAF9
:10419800040400F04B8102F11407B5403E58344046
:1041A8002C433C50506920F000405061D1E9046430
:1041B8000868D568042E074600F00C81C5F3C105D0
:1041C8006D0000F0F84704FA05F002F160047C4D38
:1041D80054F826C00CEA05053D43284340F000404A
:1041E80044F826000D698E6954F8250020F0807087
:1041F800304344F825000E690D7F54F82600A5F1D8
:104208000105B5FA85F56D0920F0007040EA4560B2
:1042180044F82600086858E7002F00F09D8090FABF
:10422800A0F4002C00F00C81B4FA84F4013404F0FA
:104238001F04092C40F2048190FAA0F4002C00F02D
:10424800A581B4FA84F40134A40604F0F84490FA81
:10425800A0F5002D00F0A481B5FA85F5013505F02B
:104268001F05012606FA05F52C4390FAA0F0002850
:1042780000F09481B0FA80F0451C05F01F0503207A
:104288006FF01D0610FB0560000540F0007020432C
:10429800C50D8C6805F0040502F11406C0F304503E
:1042A80004FA00F74FF0070C74590CFA00F024EAEE
:1042B80000003843705108681DE7404C3B4EA16828
:1042C800B04201F0E07566D0394EB04263D0394E45
:1042D800B0427FF42CAFCE013FF53FAFA26822F089
:1042E800E0722A4342F08072A26036E72F4C3349CD
:1042F800A04289683FF431AF2D4CA04201F0E0752F
:104308007FF411AF09023FF528AF2E498A427FF4A6
:1043180024AF2D4C2D4A2E481268A1689209A0FBA3
:104328000202920921F0E0710132294302EB4202B4
:10433800920041F40001A1600192019A002A3FF421
:104348000CAF019A013A0192019A002AF9D104E7C7
:10435800022002B0BDE8F081800E013000F01F0598
:104368000124800600F0F840AC40092D44EA00041E
:1043780005EB450040F289801E38000540F00070CA
:1043880085E7C8013FF5E9AE07480C4C0E49824263
:1043980018BF0C46A2E70F02BCD5DEE6FFFF0700F8
:1043A80000007F400000088000010050000021C389
:1043B8001000C090000052C7000084CB00030050DA
:1043C80000F0FF0300060050000700507C040020A6
:1043D800632D3E05146E146EC0F31205C4F3846495
:1043E800002D54D1C0F38460844200F08880546E5C
:1043F800556E02F16004C5F3846502F1640E8542CE
:1044080000F0A880A568A56804F1080CC5F38465C8
:10441800854200F08980E568E56804F10C06C5F37B
:104428008464A04200F0AC8038464EE602F11406DF
:1044380035582C403450506940F000405061B5E682
:1044480090FAA0F4002C00F0B780B4FA84F4013498
:10445800A40604F0F84490FAA0F5002D00F0AA8014
:10446800B5FA85F5013505F01F05012606FA05F5AB
:104478002C4390FAA0F0002800F09980B0FA80F060
:10448800013000F01F0000EB40000005FFE690FA45
:10449800A0F51DB1B5FA85F5AC4230D0546E556E15
:1044A80002F16004C5F3846502F1640E97FAA7F679
:1044B80004F1080CE046002E74D0B6FA86F6AE4237
:1044C8004AD0DCF80050DCF80050C5F3846597FA50
:1044D800A7FE04F10C06B046BEF1000F59D0BEFA93
:1044E8008EFEAE4522D034683468C4F3846497FAEB
:1044F800A7F5002D3FF4E9ADB5FA85F091E7106E08
:10450800144620F0004044F8600F0F68506E556E56
:10451800C7F3120602F1640EC5F384653846002E0F
:10452800C4D1C7F384606AE704F10C08DCF8000022
:1045380020F00040CCF800000F68E068E468C7F39A
:1045480012054646C4F384643846002DCFD1C7F31C
:10455800846066E704F10808DEF8000020F00040F7
:10456800CEF800000F68A068A568C7F31206C44615
:10457800C5F384653846002EA9D1C7F3846047E7A0
:10458800306820F00040306008689EE54FF0806495
:104598005DE6E568E468C4F38464A8E7084876E65D
:1045A800022561E6A568A568C5F384658FE74FF421
:1045B80040106CE602255BE74FF080644BE700BFD4
:1045C800000050FE30B590F858304C68012B00F0D0
:1045D800B4800268012380F85830936813F0040F00
:1045E80084469368086833D0B34B9842D1E90441B4
:1045F8005BD0D36803F01803182B63D0D368C3F3D8
:10460800C103C3F102035B0003F01E0324FA03FE97
:10461800D36803F01803182B5BD0D368C3F3C10326
:10462800C3F102035B0003F01E0321FA03F3800CBD
:1046380000F00C00203243EA0E43115801F0F0213B
:104648004FF0000E0B4313508CF858E0704630BD05
:104658001B07C9D4984B98423DD0B4F1A07F00F015
:10466800D1806CD8B4F5400F00F0CC80B4F1807FD5
:1046780002D0B4F5000F68D140F30003C0F3015E27
:1046880003F024039E4402F10C0420F0024554F880
:104698002E3025F4601520F07E4020F4F00023EA47
:1046A8000503034344F82E3062E0D368C3F3C10323
:1046B8005B0004FA03FED368C3F3C1035B0001FA8D
:1046C80003F3B4E7D36803F01803182B4FEA840EFA
:1046D800A3D18B00ABE7B4F1A07F00F0B6805ED821
:1046E800B4F5400F00F0CE80B4F1807F00F0C180B7
:1046F800B4F5000F40F0B680D36823F0FB4323F4F1
:10470800800343F40003D360136A886923F4E04309
:1047180003431362DCF85C30802023F48033CCF848
:104728005C3010600B7B0868012B53680CBF43F0AA
:10473800800323F08003536056E7022030BDB4F1B4
:10474800C07F99D0B4F1E07F5CD040F30004C0F39F
:10475800015304F02404234402F10C0520F0024420
:1047680055F8230024F4601420EA040045F82300D7
:104778000868524B984230D0DCF85C3023F4802330
:10478800CCF85C304FF4007313600B7B012B53683B
:104798000CBF43F4007323F40073536024E7B4F1AF
:1047A800C07F49D0B4F1E07F5CD1D0688B6820F03D
:1047B800FB4003F0F84320F48000034343F0E07328
:1047C800D360A1E7002D6AD1C3F384630120984028
:1047D800D2F8A0300343C2F8A030DCF85C304FF4C4
:1047E800807023F40033CCF85C3010600B7B012B15
:1047F80053680CBF034323F480735360D1E9044129
:104808002E48F6E62D4C8B68A042C3F31205D9D08A
:104818004DB9C3F3846301249C40D2F8A4302343E8
:10482800C2F8A430A8E793FAA3F3002B3FD0B3FA59
:1048380083F301249C40F0E7D36823F0FB4323F47F
:10484800800343F0C073D3605EE7D0688B6820F0C4
:10485800FB4003F0F84320F48000034343F0A073C7
:10486800D36051E7D36823F0FB4323F48003D3607C
:104878004AE7D36823F0FB4323F4800343F08073B3
:10488800D36041E7D0688B6820F0FB4003F0F84321
:1048980020F48000034343F44003D36034E793FAE1
:1048A800A3F333B1B3FA83F30120984090E70124CE
:1048B800B3E701208CE700BF0000C07DFFFF1700B1
:1048C8002DE9F04390F8583083B00246012B4FF0A1
:1048D8000000019000F0CA810123556982F8583020
:1048E800D1E900401368002D00F083800D6A012D86
:1048F8007FD0976E00F01F00C4F384668640002FB7
:1049080040F00281886A013D002800F04A82CF6A9F
:1049180000F07C00284338433043C2E91905986801
:10492800070710D491F8260091F825504005002D6E
:1049380040F0E080DD6891F8246025F4401540EAF5
:1049480006502843D860986810F0040067D098682B
:1049580000209D68ED0714D4CF68B54DD3F8B0603A
:1049680007F0180C25FA0CF5C4F3120E254026EAB8
:104978000E0C45EA0C05C3F8B050AE4DAF4200F03E
:104988001081AD490C422ED0B3F1A04F00F0348114
:10499800AA498B4200F0D38001F5C061A84D89680F
:1049A800AC4201F0E07600F0D680A64DAC4200F0B3
:1049B800D280A54DAC4200F04982A44DAC4212D140
:1049C800490210D49D498B420DD0A14C01F5C0611C
:1049D800B3F1A04F08BF21468B6823F0E07333433F
:1049E80043F480038B60002382F8583003B0BDE89D
:1049F800F083092893D1886A650C05F4785520B1AD
:104A0800CE6A00F07C0030430543D86C914E3040AC
:104A18002843D86498685566070794D482E79D6848
:104A28002E0796D48D6A91F82500002D7ED1012895
:104A3800D86800F0B88120F00070D860002091F8A4
:104A48003050012D00F059811D6925F002051D61C6
:104A58008E68C4F304570725E40DBD40B6F1004F36
:104A680004F004046FEA050500F03D8103F1140C1D
:104A7800BE405CF804703D4035434CF804505C6916
:104A880024F000445C610F690C684D69DE68042FEE
:104A9800A44600F03D81C6F3C106760004F0F84C48
:104AA80005FA06F403F160056B4E55F827E00EEAA7
:104AB800060646EA0C06344344F0004445F827400D
:104AC8000F698E6955F8274024F08074344345F8FF
:104AD80027400F690E7F55F82740A6F10106B6FA60
:104AE80086F6760924F0007444EA466445F82740BF
:104AF8000C682EE7DD6825F440152843D8609868CF
:104B080010F004008BD022E7556E013F35439766BD
:104B18005566002F7FF403AFD86C4E4E30402843C3
:104B2800D864986807073FF50EAFFBE6CD6A002DFD
:104B38003FF47DAF012800F06081D8687BE7404DE5
:104B48004349AC4289683FF44EAF3E4DAC4201F058
:104B5800E0767FF42EAF09023FF545AF3F498B421F
:104B68007FF441AF3E4DA9683E4B21F0E0713143DF
:104B780041F400011B68A9603B499B09A1FB031391
:104B88009B0903EB43039B0018330193019B002B04
:104B98003FF429AF019B013B0193019B002BF9D105
:104BA80021E7BEF1000F65D1A40E013404F01F0601
:104BB8000125A40604F0F844B540092E45EA040589
:104BC80006EB460400F2148124052C43E60D8D689B
:104BD80006F0040603F11407C4F3045405FA04FCB0
:104BE8004FF0070EBD590EFA04F425EA040444EA0E
:104BF8000C04BC510C68C4E6154D114FA968BC42A1
:104C080001F0E07600F0C9800E4FBC4200F0C5808C
:104C18000D4FBC427FF4D1AECF013FF5E4AEAB6897
:104C280023F0E073334343F08073AB60DBE600BFEF
:104C3800FFFF070000007F400000088000010050CF
:104C4800000021C31000C090000052C7000084CBB0
:104C5800000300500040100400F0FF03000600505D
:104C6800000700507C040020632D3E05022003B09D
:104C7800BDE8F08394FAA4F5002D00F0C380B5FADE
:104C880085F5013505F01F05092D40F2BB8094FA22
:104C9800A4F5002D00F03D81B5FA85F50135AD0686
:104CA80005F0F84594FAA4F6002E00F03081B6FA23
:104CB80086F6013606F01F06012707FA06F6354381
:104CC80094FAA4F4002C00F02781B4FA84F4661C4A
:104CD80006F01F0603246FF01D0714FB0674240555
:104CE80044F0007471E703F114073E5935403D5113
:104CF8005C6944F000445C61C5E6D1E90D571E6962
:104D08003D4326F4FF76354345F002051D619FE6D5
:104D18001D6E1D6EC4F31206C5F38465002E46D0C1
:104D280094FAA4F626B1B6FA86F6B54200F0988051
:104D38005D6E5E6E03F16005C6F3846603F1640878
:104D48009CFAACF705F1080EF146002F00F0DA8066
:104D5800B7FA87F7B74200F0B480DEF80060DEF8F3
:104D68000060C6F384669CFAACF805F10C07B946F6
:104D7800B8F1000F00F0C180B8FA88F8B04500F02B
:104D880088803D683D68C5F384659CFAACF6002EC2
:104D98003FF4DFADB6FA86F425E00B027FF5E3AE0B
:104DA80021E62846B8E540F00070D86046E6C4F32E
:104DB8008464A54254D05D6E5E6E03F16005C6F34F
:104DC800846603F16408A64279D0AE68AE6805F13E
:104DD800080EC6F38466A64259D0EE68EE6805F15F
:104DE8000C07C6F38465AC4200F081806446B0E5E8
:104DF8001E3C240544F00074E7E6D56D45F0200517
:104E0800D5651CE694FAA4F5002D00F08C80B5FA5F
:104E180085F50135AD0605F0F84594FAA4F6002E9F
:104E28007FD0B6FA86F6013606F01F06012707FA84
:104E380006F6354394FAA4F4002C6FD0B4FA84F43F
:104E4800013404F01F0404EB4404BDE6CC013FF533
:104E5800CAAD364C364D3749A34218BF0D46DEE67B
:104E68001C6E1D4624F0004445F8604FD1F800C080
:104E78005C6E5E6ECCF31207C6F3846603F16408B9
:104E88006446002F7FF45CAFCCF384649BE705F1A4
:104E98000C09DEF8004024F00044CEF80040D1F8B8
:104EA80000C0EC68ED68CCF312064F46C5F3846584
:104EB8006446002E7FF469AFCCF3846493E705F170
:104EC8000809D8F8004024F00044C8F80040D1F898
:104ED80000C0AC68AE68CCF31207CE46C6F3846651
:104EE8006446002F7FF43FAFCCF3846473E73C68DB
:104EF80024F000443C600C682BE5EE68ED68C5F3CF
:104F0800846542E7AE68AE68C6F384662BE702267E
:104F1800D5E64FF08065C5E6074C56E64FF44014D9
:104F280053E6022685E74FF0806576E700010050DA
:104F38000003005000070050000050FE90F8582071
:104F4800012A4CD070B402689DB0034600240120A9
:104F5800B2F1A04F189483F8580019940BD0464D1D
:104F6800AA423AD0DA6D83F8584042F02002DA6556
:104F78001DB070BC70474148806840070BD59268E7
:104F8800DA6D42F020020120DA65002283F8582009
:104F98001DB070BC704790684007F1D4B2F1A04FC3
:104FA80008681ED0002831D13549334C8A68354805
:104FB80022F460428A60A4688268D60758D4324ACC
:104FC8009268D00707D4E20705D48A6822F4716290
:104FD80022F00F028A600020D7E72A48CCE7022097
:104FE8007047002834D0294D4E68AC6893F838C013
:104FF80024F46044344344EA4C34AC609268D407E7
:1050080033D41E4A9268D40718D5E4E71C4D4C687F
:10501800AA6822F46042224393F8384042EA4432B4
:10502800AA60154A946802F580729268D6071FD460
:10503800154A9268D207CED4E607CCD4AC688A6801
:1050480024F47161024321F00F010A43AA60C2E708
:105058000E49886820F4604088609268D50704D4B7
:10506800064A9268D407B6D4AFE7044A9268B2E712
:10507800054A9268AFE700BF0004005000010050E5
:1050880000070050000500500006005000030050C3
:105098000749CA6803024FF6FF0003F4E0630240C1
:1050A800134343F0BF6343F40033CB60704700BF42
:1050B80000ED00E01B4BDB68C3F3022300B5C3F12E
:1050C800070EBEF1040F03F1040C28BF4FF0040EC5
:1050D800BCF1060F1CD9A3F1030C4FF0FF3303FA00
:1050E8000CF322EA03024FF0FF3303FA0EF321EA2E
:1050F800030303FA0CF313431B010028DBB20ADB9A
:1051080000F1604000F5614080F800335DF804FB71
:1051180000229446E7E7044A00F00F0002441376A1
:105128005DF804FB00ED00E0FCEC00E0002807DB84
:10513800044A4109012300F01F00834042F821304E
:10514800704700BF00E100E0BFF34F8F0549064BF1
:10515800CA6802F4E0621343CB60BFF34F8F00BF0D
:10516800FDE700BF00ED00E00400FA050138B0F1EA
:10517800807F01D30120704710B44FF0E023074C23
:1051880058614FF0F00C84F823C000220721104624
:105198009A615DF8044B1961704700BF00ED00E0AB
:1051A800704700BF08B5FFF7FBFF08BD002876D0A1
:1051B800F0B43C4A0468944203465CD93A493B4AF5
:1051C8003B482144A2FB01210909890002229D686C
:1051D80083F82520DA68354E364FC3E9100118697F
:1051E8002A4302435869024398690243D869024333
:1051F800E0B20838A6FB0060266826F4FF4C1E6A59
:105208002CF0700C324342EA0C022260254E2A4AE6
:10521800C0F30410B44298BF3A4606F27946012416
:1052280004FA00F0DE64B5F5804F01EB020618655C
:105238009E644FEA910127D05E68F5B2013E032EC5
:1052480042F82150C7F8840024D81C4A1C482A4434
:105258009200013DAC400021C3E91520DC651160D6
:10526800184A546400200122D86383F8240083F884
:105278002520F0BC704714490C4A14482144A2FB6D
:10528800012109098900A1E700245C6042F8214056
:10529800C7F884000022C3E91522DA65E2E7012095
:1052A800704700BF07040240F8FBFDBFCDCCCCCC53
:1052B8000004024000080240200802403F8200101B
:1052C8004009024000090240F8FFFDBF000002400B
:1052D8000B68002B00F098812DE9F04FB0F1904F4A
:1052E80085B04FF000024FF0010B00F00D81DFF8A0
:1052F8004CE30093009B0BFA02FC1CEA030A77D0EC
:105308004D6805F003075400032307F1FF3803FA3B
:1053180004F6B8F1010F6FEA060640F21981032F6F
:1053280040F0798107FA04F407683E40344315F4E5
:10533800403F04605CD0BE4E346E44F001043466D5
:10534800346E04F001040394039C22F0030404F176
:10535800804402F003070F2304F58034BF0003FAEA
:1053680007FCB44BA668984226EA0C0600F0408178
:10537800B14B984200F02D81DFF8C4C2604500F0BF
:105388003D81DFF8C0C2604500F03F81DFF8B8C258
:1053980060450CBF4FF0050C4FF0060C0CFA07F7F0
:1053A8003E43A660DEF808406FEA0A06EF0254BFE3
:1053B80034404AEA0404CEF80840DEF80C40AB0258
:1053C80054BF34404AEA0404CEF80C40DEF80440E6
:1053D800AF0354BF34404AEA0404CEF80440DEF870
:1053E8000040EB0354BF34404AEA0404CEF80040BE
:1053F800009B013233FA02F47FF47CAF05B0BDE8BC
:10540800F08FD0F80890CE680AEA090906FA07F87A
:1054180048EA0908C0F80880D0F8048028EA0E088D
:10542800C5F3001E0EFA02FE4EEA080EC0F804E0AC
:10543800D0F80C808E680AEA080806FA07FE4EEAD9
:10544800080E022CC0F80CE019D14FEAD20E0E69F2
:105458004FEA8E0E02F007080EF1904E4FEA8808C8
:1054680006FA08F6DEF8209000960F2606FA08F8E5
:10547800009E29EA080946EA0908CEF82080BC40BF
:10548800076807EA0A073C4315F4403F046036D032
:10549800674F3C6E44F001043C663C6E04F0010426
:1054A8000394039C22F0030404F1804404F580343F
:1054B80002F00307D4F808E00F26BF0006FA07F742
:1054C8002EEA0707A7605D4CEE02A4686FEA0C0796
:1054D8007CD43C40594EB460F468AE0200F185803B
:1054E8003C40564EF4607468AE037BD43C40534E47
:1054F800ED037460346872D43C40504D2C60013226
:1055080033FA02F43FF47AAF0BFA02FE13EA0E0CF8
:10551800F5D04D685700032606FA07F805F003048E
:105528006FEA080A04F1FF38B8F1010F7FF669AF96
:10553800032CA4D04FF090488E68D8F80C9006FA47
:1055480007FE0AEA09094EEA090EC8F80CE096E7D0
:10555800D0F80890CB6809EA060903FA04F848EA83
:105568000908C0F80880D0F804808B6828EA0C087D
:10557800C5F3001C0CFA02FC4CEA080CC0F804C085
:10558800D0F80C8003FA04FC08EA06084CEA080C78
:10559800022FC0F80CC07FF4C5AE0B694FEAD208E1
:1055A80002F0070C00EB88084FEA8C0C03FA0CF3A6
:1055B800D8F8209001930F2303FA0CFC019B29EAE9
:1055C8000C0943EA090CC8F820C0ABE644EA0C040D
:1055D80080E74FF0020C0CFA07F73E43E1E64CEA8D
:1055E80004048AE744EA0C0481E74CEA040478E7F7
:1055F8004FF0010C0CFA07F73E43D2E64FF0030CCC
:105608000CFA07F73E43CCE670474FF0040C0CFA4F
:1056180007F73E43C5E6D0F80C808B6808EA060811
:1056280003FA04FC4CEA080CC0F80CC07AE600BF88
:10563800001002400004004800080048000401402F
:10564800000C004800100048001400480AB18161AD
:1056580070478162704700BF354A136860B903F428
:10566800C063B3F5806FD2F880301BD023F4807309
:10567800C2F8803000207047B0F5007F06D023F4D0
:10568800C06343F4806313600020704703F4C06371
:10569800B3F5806FD2F8803029D043F48073C2F814
:1056A8008030F1E723F48073C2F880301368214812
:1056B800214923F4C06343F4007313600368322064
:1056C80000FB03F35069A1FB03139B0C400503F196
:1056D800010306D500E023B15169490503F1FF3301
:1056E800F9D4134B5B695B05CED50320704743F4AF
:1056F8008073C2F8803013680E480F4923F4C063E2
:1057080043F4007313600368322000FB03F350690D
:10571800A1FB03139B0C400503F10103E1D501E054
:10572800002BDED05169490503F1FF33D9D5F7E7DE
:10573800007000407C04002083DE1B43024A93680B
:1057480043F480439360704700700040002800F0E5
:10575800BD812DE9F0410368D90782B0044612D50E
:10576800A6498A68C96802F00C020C2A00F0D080A9
:10577800082A40F0D280A14A1268920303D56268D1
:10578800002A00F037819A0722D59C4A9368D2688C
:1057980003F00C030C2B00F0F880042B40F0FA8087
:1057A800964B1B685B0503D5E368002B00F022814C
:1057B800924A20695368924923F0FE4343EA006302
:1057C80053600868FEF7F6FA002840F01381236852
:1057D8001A0719D56369894D002B00F0C280D5F8E6
:1057E800943043F00103C5F89430FEF72DFB0646CC
:1057F80005E0FEF729FB801B022800F21781D5F887
:1058080094309B07F5D523685D0741D57B4B9A6D8E
:10581800D00000F10F819A6D42F080529A659B6D1D
:1058280003F080530193019B0125764E3368D90517
:1058380040F12E81A368012B00F0FE80052B00F0BB
:1058480084816E4ED6F8902022F00102C6F890208E
:10585800D6F8902022F00402C6F89020002B40F0E1
:10586800F280FEF7F1FA41F28838074605E0FEF7C4
:10587800EBFAC01B404500F2D980D6F89030990762
:10588800F5D425B15D4A936D23F080539365236861
:105898009A0618D5A369594D002B00F0E580D5F874
:1058A800983043F00103C5F89830FEF7CDFA064664
:1058B80005E0FEF7C9FA801B022800F2B780D5F888
:1058C80098309B07F5D5E369F3B14C4DAA6802F00F
:1058D8000C020C2A00F04781022B2B6823F08073FE
:1058E8002B6000F0F580FEF7AFFA044605E0FEF7FE
:1058F800ABFA001B022800F299802B689B01F6D4B2
:10590800EA68414B1340EB60002002B0BDE8F0812B
:1059180001F0030103293FF42EAF6368B3F5803F1C
:1059280055D0B3F5A02F00F0C480344D2A6822F476
:1059380080322A602A6822F480222A60002B4BD108
:10594800FEF782FA064604E0FEF77EFA801B64281A
:105958006CD82B689903F7D423689A077FF538AF7A
:1059680013E7D5F8943023F00103C5F89430FEF717
:105978006BFA064604E0FEF767FA801B022855D842
:10598800D5F894309F07F6D43DE702F00302022AC7
:105998003FF406AFE368194D002B37D02B6843F46A
:1059A80080732B60FEF750FA064604E0FEF74CFAC7
:1059B800801B02283AD82B685F05F7D56B682269E7
:1059C80023F0FE4343EA02636B60236800E70B4A57
:1059D800136843F480331360FEF736FA074E054622
:1059E80004E0FEF731FA401B64281FD833689F0390
:1059F800F7D5B1E7012002B0BDE8F0810010024000
:105A08008404002000700040FCFFEEFE2B6823F4A5
:105A180080732B60FEF718FA06462B6859057FF548
:105A2800D6AEFEF711FA801B0228F6D9032002B081
:105A3800BDE8F0810025F8E6654AD2F8903043F0D9
:105A48000103C2F89030FEF7FFF9614F064641F2B4
:105A5800883804E0FEF7F8F9801B4045E6D8D7F807
:105A680090309B07F6D50CE7D5F8983023F0010362
:105A7800C5F89830FEF7E8F9064604E0FEF7E4F9C1
:105A8800801B0228D2D8D5F898309F07F6D41AE799
:105A9800336843F480733360FEF7D6F907463368FA
:105AA800DA053FF5C7AEFEF7CFF9C01B0228F6D9D5
:105AB800BCE703F18043A3F53C331A6842F4802223
:105AC8001A601A6842F480321A6085E7012070472C
